{
  "contractName": "Adoption",
  "abi": [
    {
      "constant": true,
      "inputs": [
        {
          "internalType": "uint256",
          "name": "",
          "type": "uint256"
        }
      ],
      "name": "adopters",
      "outputs": [
        {
          "internalType": "address",
          "name": "",
          "type": "address"
        }
      ],
      "payable": false,
      "stateMutability": "view",
      "type": "function"
    },
    {
      "constant": true,
      "inputs": [
        {
          "internalType": "uint256",
          "name": "",
          "type": "uint256"
        }
      ],
      "name": "pets",
      "outputs": [
        {
          "internalType": "uint256",
          "name": "id",
          "type": "uint256"
        },
        {
          "internalType": "string",
          "name": "name",
          "type": "string"
        },
        {
          "internalType": "string",
          "name": "picture",
          "type": "string"
        },
        {
          "internalType": "uint256",
          "name": "age",
          "type": "uint256"
        },
        {
          "internalType": "string",
          "name": "breed",
          "type": "string"
        },
        {
          "internalType": "string",
          "name": "location",
          "type": "string"
        }
      ],
      "payable": false,
      "stateMutability": "view",
      "type": "function"
    },
    {
      "constant": false,
      "inputs": [
        {
          "internalType": "string",
          "name": "name",
          "type": "string"
        },
        {
          "internalType": "string",
          "name": "breed",
          "type": "string"
        },
        {
          "internalType": "uint256",
          "name": "age",
          "type": "uint256"
        },
        {
          "internalType": "string",
          "name": "location",
          "type": "string"
        },
        {
          "internalType": "string",
          "name": "picture",
          "type": "string"
        }
      ],
      "name": "registerPet",
      "outputs": [],
      "payable": false,
      "stateMutability": "nonpayable",
      "type": "function"
    },
    {
      "constant": true,
      "inputs": [],
      "name": "getPetsCount",
      "outputs": [
        {
          "internalType": "uint256",
          "name": "",
          "type": "uint256"
        }
      ],
      "payable": false,
      "stateMutability": "view",
      "type": "function"
    },
    {
      "constant": true,
      "inputs": [
        {
          "internalType": "uint256",
          "name": "index",
          "type": "uint256"
        }
      ],
      "name": "getPet",
      "outputs": [
        {
          "internalType": "uint256",
          "name": "",
          "type": "uint256"
        },
        {
          "internalType": "string",
          "name": "",
          "type": "string"
        },
        {
          "internalType": "string",
          "name": "",
          "type": "string"
        },
        {
          "internalType": "uint256",
          "name": "",
          "type": "uint256"
        },
        {
          "internalType": "string",
          "name": "",
          "type": "string"
        },
        {
          "internalType": "string",
          "name": "",
          "type": "string"
        }
      ],
      "payable": false,
      "stateMutability": "view",
      "type": "function"
    },
    {
      "constant": false,
      "inputs": [
        {
          "internalType": "uint256",
          "name": "petId",
          "type": "uint256"
        }
      ],
      "name": "adopt",
      "outputs": [
        {
          "internalType": "uint256",
          "name": "",
          "type": "uint256"
        }
      ],
      "payable": false,
      "stateMutability": "nonpayable",
      "type": "function"
    },
    {
      "constant": false,
      "inputs": [
        {
          "internalType": "uint256",
          "name": "petId",
          "type": "uint256"
        }
      ],
      "name": "unadopt",
      "outputs": [
        {
          "internalType": "uint256",
          "name": "",
          "type": "uint256"
        }
      ],
      "payable": false,
      "stateMutability": "nonpayable",
      "type": "function"
    },
    {
      "constant": true,
      "inputs": [],
      "name": "getAdopters",
      "outputs": [
        {
          "internalType": "address[]",
          "name": "",
          "type": "address[]"
        }
      ],
      "payable": false,
      "stateMutability": "view",
      "type": "function"
    }
  ],
  "bytecode": "0x608060405234801561001057600080fd5b506112af806100206000396000f3fe608060405234801561001057600080fd5b50600436106100885760003560e01c80638588b2c51161005b5780638588b2c51461037157806390b84029146103b3578063b0b05f4f146103f5578063cfb869bf1461067f57610088565b80633de4eb171461008d57806343ae80d3146100ec57806359d551941461015a57806375f92dfd14610353575b600080fd5b610095610878565b6040518080602001828103825283818151815260200191508051906020019060200280838360005b838110156100d85780820151818401526020810190506100bd565b505050509050019250505060405180910390f35b6101186004803603602081101561010257600080fd5b8101908080359060200190929190505050610906565b604051808273ffffffffffffffffffffffffffffffffffffffff1673ffffffffffffffffffffffffffffffffffffffff16815260200191505060405180910390f35b6101866004803603602081101561017057600080fd5b8101908080359060200190929190505050610942565b604051808781526020018060200180602001868152602001806020018060200185810385528a818151815260200191508051906020019080838360005b838110156101de5780820151818401526020810190506101c3565b50505050905090810190601f16801561020b5780820380516001836020036101000a031916815260200191505b50858103845289818151815260200191508051906020019080838360005b83811015610244578082015181840152602081019050610229565b50505050905090810190601f1680156102715780820380516001836020036101000a031916815260200191505b50858103835287818151815260200191508051906020019080838360005b838110156102aa57808201518184015260208101905061028f565b50505050905090810190601f1680156102d75780820380516001836020036101000a031916815260200191505b50858103825286818151815260200191508051906020019080838360005b838110156103105780820151818401526020810190506102f5565b50505050905090810190601f16801561033d5780820380516001836020036101000a031916815260200191505b509a505050505050505050505060405180910390f35b61035b610cd2565b6040518082815260200191505060405180910390f35b61039d6004803603602081101561038757600080fd5b8101908080359060200190929190505050610cdf565b6040518082815260200191505060405180910390f35b6103df600480360360208110156103c957600080fd5b8101908080359060200190929190505050610d3f565b6040518082815260200191505060405180910390f35b61067d600480360360a081101561040b57600080fd5b810190808035906020019064010000000081111561042857600080fd5b82018360208201111561043a57600080fd5b8035906020019184600183028401116401000000008311171561045c57600080fd5b91908080601f016020809104026020016040519081016040528093929190818152602001838380828437600081840152601f19601f820116905080830192505050505050509192919290803590602001906401000000008111156104bf57600080fd5b8201836020820111156104d157600080fd5b803590602001918460018302840111640100000000831117156104f357600080fd5b91908080601f016020809104026020016040519081016040528093929190818152602001838380828437600081840152601f19601f820116905080830192505050505050509192919290803590602001909291908035906020019064010000000081111561056057600080fd5b82018360208201111561057257600080fd5b8035906020019184600183028401116401000000008311171561059457600080fd5b91908080601f016020809104026020016040519081016040528093929190818152602001838380828437600081840152601f19601f820116905080830192505050505050509192919290803590602001906401000000008111156105f757600080fd5b82018360208201111561060957600080fd5b8035906020019184600183028401116401000000008311171561062b57600080fd5b91908080601f016020809104026020016040519081016040528093929190818152602001838380828437600081840152601f19601f820116905080830192505050505050509192919290505050610d9f565b005b6106ab6004803603602081101561069557600080fd5b8101908080359060200190929190505050610ef6565b604051808781526020018060200180602001868152602001806020018060200185810385528a818151815260200191508051906020019080838360005b838110156107035780820151818401526020810190506106e8565b50505050905090810190601f1680156107305780820380516001836020036101000a031916815260200191505b50858103845289818151815260200191508051906020019080838360005b8381101561076957808201518184015260208101905061074e565b50505050905090810190601f1680156107965780820380516001836020036101000a031916815260200191505b50858103835287818151815260200191508051906020019080838360005b838110156107cf5780820151818401526020810190506107b4565b50505050905090810190601f1680156107fc5780820380516001836020036101000a031916815260200191505b50858103825286818151815260200191508051906020019080838360005b8381101561083557808201518184015260208101905061081a565b50505050905090810190601f1680156108625780820380516001836020036101000a031916815260200191505b509a505050505050505050505060405180910390f35b606060008054806020026020016040519081016040528092919081815260200182805480156108fc57602002820191906000526020600020905b8160009054906101000a900473ffffffffffffffffffffffffffffffffffffffff1673ffffffffffffffffffffffffffffffffffffffff16815260200190600101908083116108b2575b5050505050905090565b6000818154811061091357fe5b906000526020600020016000915054906101000a900473ffffffffffffffffffffffffffffffffffffffff1681565b6000606080600060608060018054905087106109c6576040517f08c379a00000000000000000000000000000000000000000000000000000000081526004018080602001828103825260138152602001807f50657420646f6573206e6f742065786973742e0000000000000000000000000081525060200191505060405180910390fd5b6109ce61119f565b600188815481106109db57fe5b90600052602060002090600602016040518060c001604052908160008201548152602001600182018054600181600116156101000203166002900480601f016020809104026020016040519081016040528092919081815260200182805460018160011615610100020316600290048015610a975780601f10610a6c57610100808354040283529160200191610a97565b820191906000526020600020905b815481529060010190602001808311610a7a57829003601f168201915b50505050508152602001600282018054600181600116156101000203166002900480601f016020809104026020016040519081016040528092919081815260200182805460018160011615610100020316600290048015610b395780601f10610b0e57610100808354040283529160200191610b39565b820191906000526020600020905b815481529060010190602001808311610b1c57829003601f168201915b5050505050815260200160038201548152602001600482018054600181600116156101000203166002900480601f016020809104026020016040519081016040528092919081815260200182805460018160011615610100020316600290048015610be55780601f10610bba57610100808354040283529160200191610be5565b820191906000526020600020905b815481529060010190602001808311610bc857829003601f168201915b50505050508152602001600582018054600181600116156101000203166002900480601f016020809104026020016040519081016040528092919081815260200182805460018160011615610100020316600290048015610c875780601f10610c5c57610100808354040283529160200191610c87565b820191906000526020600020905b815481529060010190602001808311610c6a57829003601f168201915b5050505050815250509050806000015181602001518260400151836060015184608001518560a001518494508393508191508090509650965096509650965096505091939550919395565b6000600180549050905090565b60003360008381548110610cef57fe5b9060005260206000200160006101000a81548173ffffffffffffffffffffffffffffffffffffffff021916908373ffffffffffffffffffffffffffffffffffffffff160217905550819050919050565b60008060008381548110610d4f57fe5b9060005260206000200160006101000a81548173ffffffffffffffffffffffffffffffffffffffff021916908373ffffffffffffffffffffffffffffffffffffffff160217905550819050919050565b60016040518060c0016040528060018054905081526020018781526020018381526020018581526020018681526020018481525090806001815401808255809150509060018203906000526020600020906006020160009091929091909150600082015181600001556020820151816001019080519060200190610e249291906111d5565b506040820151816002019080519060200190610e419291906111d5565b50606082015181600301556080820151816004019080519060200190610e689291906111d5565b5060a0820151816005019080519060200190610e859291906111d5565b5050505060008090806001815401808255809150509060018203906000526020600020016000909192909190916101000a81548173ffffffffffffffffffffffffffffffffffffffff021916908373ffffffffffffffffffffffffffffffffffffffff160217905550505050505050565b60018181548110610f0357fe5b9060005260206000209060060201600091509050806000015490806001018054600181600116156101000203166002900480601f016020809104026020016040519081016040528092919081815260200182805460018160011615610100020316600290048015610fb55780601f10610f8a57610100808354040283529160200191610fb5565b820191906000526020600020905b815481529060010190602001808311610f9857829003601f168201915b505050505090806002018054600181600116156101000203166002900480601f0160208091040260200160405190810160405280929190818152602001828054600181600116156101000203166002900480156110535780601f1061102857610100808354040283529160200191611053565b820191906000526020600020905b81548152906001019060200180831161103657829003601f168201915b505050505090806003015490806004018054600181600116156101000203166002900480601f0160208091040260200160405190810160405280929190818152602001828054600181600116156101000203166002900480156110f75780601f106110cc576101008083540402835291602001916110f7565b820191906000526020600020905b8154815290600101906020018083116110da57829003601f168201915b505050505090806005018054600181600116156101000203166002900480601f0160208091040260200160405190810160405280929190818152602001828054600181600116156101000203166002900480156111955780601f1061116a57610100808354040283529160200191611195565b820191906000526020600020905b81548152906001019060200180831161117857829003601f168201915b5050505050905086565b6040518060c001604052806000815260200160608152602001606081526020016000815260200160608152602001606081525090565b828054600181600116156101000203166002900490600052602060002090601f016020900481019282601f1061121657805160ff1916838001178555611244565b82800160010185558215611244579182015b82811115611243578251825591602001919060010190611228565b5b5090506112519190611255565b5090565b61127791905b8082111561127357600081600090555060010161125b565b5090565b9056fea265627a7a723158208fb519b36f686cfe38db5f04af40ad33f4ace52e401ed20628dbda6d2a38c8d964736f6c63430005110032",
  "source": "pragma solidity ^0.5.0;\n\ncontract Adoption {\n  address[] public adopters;\n\n  struct Pet {\n      uint id;\n      string name;\n      string picture;\n      uint age;\n      string breed;\n      string location;\n  }\n\n  Pet[] public pets;\n\n\n  function registerPet(string memory name, string memory breed, uint age, string memory location, string memory picture) public {\n      pets.push(Pet(pets.length, name, picture, age, breed, location));\n      adopters.push(address(0));\n  }\n\n  function getPetsCount() public view returns (uint) {\n      return pets.length;\n  }\n\n  // Additional function to get pet details by index to facilitate displaying pets on the homepage\n  function getPet(uint index) public view returns (uint, string memory, string memory, uint, string memory, string memory) {\n      require(index < pets.length, \"Pet does not exist.\");\n      Pet memory pet = pets[index];\n      return (pet.id, pet.name, pet.picture, pet.age, pet.breed, pet.location);\n  }\n\n  // Adopting a pet\n  function adopt(uint petId) public returns (uint) {\n    // require(petId >= 0 && petId <= 15, \"Pet ID must be within range 0 to 15.\");\n\n    adopters[petId] = msg.sender;\n\n\n    return petId;\n  }\n\n  // Unadopting a pet\n  function unadopt(uint petId) public returns (uint) {\n    // require(petId >= 0 && petId <= 15, \"Pet ID must be within range 0 to 15.\");\n\n    adopters[petId] = address(0) ;\n\n    // Emitting event after successful adoption\n    return petId;\n  }\n\n  // Retrieving the adopters\n  function getAdopters() public view returns (address[] memory) {\n    return adopters;\n  }\n\n}",
  "sourcePath": "/Users/qianqian/Desktop/APS1050_Blockchain_PetShop_Project/contracts/Adoption.sol",
  "compiler": {
    "name": "solc",
    "version": "0.5.17+commit.d19bba13.Emscripten.clang"
  },
  "schemaVersion": "3.4.16",
  "updatedAt": "2024-03-30T21:19:52.896Z",
  "networkType": "ethereum",
  "devdoc": {
    "methods": {}
  },
  "userdoc": {
    "methods": {}
  }
}