{
  "contractName": "Adoption",
  "abi": [
    {
      "constant": true,
      "inputs": [
        {
          "internalType": "uint256",
          "name": "",
          "type": "uint256"
        }
      ],
      "name": "adopters",
      "outputs": [
        {
          "internalType": "address",
          "name": "",
          "type": "address"
        }
      ],
      "payable": false,
      "stateMutability": "view",
      "type": "function"
    },
    {
      "constant": true,
      "inputs": [
        {
          "internalType": "uint256",
          "name": "",
          "type": "uint256"
        }
      ],
      "name": "petIds",
      "outputs": [
        {
          "internalType": "uint256",
          "name": "",
          "type": "uint256"
        }
      ],
      "payable": false,
      "stateMutability": "view",
      "type": "function"
    },
    {
      "constant": true,
      "inputs": [
        {
          "internalType": "uint256",
          "name": "",
          "type": "uint256"
        }
      ],
      "name": "pets",
      "outputs": [
        {
          "internalType": "string",
          "name": "name",
          "type": "string"
        },
        {
          "internalType": "string",
          "name": "breed",
          "type": "string"
        },
        {
          "internalType": "uint256",
          "name": "age",
          "type": "uint256"
        },
        {
          "internalType": "string",
          "name": "location",
          "type": "string"
        },
        {
          "internalType": "string",
          "name": "photo",
          "type": "string"
        },
        {
          "internalType": "address",
          "name": "owner",
          "type": "address"
        }
      ],
      "payable": false,
      "stateMutability": "view",
      "type": "function"
    },
    {
      "constant": false,
      "inputs": [
        {
          "internalType": "uint256",
          "name": "petId",
          "type": "uint256"
        },
        {
          "internalType": "string",
          "name": "name",
          "type": "string"
        },
        {
          "internalType": "string",
          "name": "breed",
          "type": "string"
        },
        {
          "internalType": "uint256",
          "name": "age",
          "type": "uint256"
        },
        {
          "internalType": "string",
          "name": "location",
          "type": "string"
        },
        {
          "internalType": "string",
          "name": "photo",
          "type": "string"
        }
      ],
      "name": "adopt",
      "outputs": [
        {
          "internalType": "uint256",
          "name": "",
          "type": "uint256"
        }
      ],
      "payable": false,
      "stateMutability": "nonpayable",
      "type": "function"
    },
    {
      "constant": false,
      "inputs": [
        {
          "internalType": "uint256",
          "name": "petId",
          "type": "uint256"
        }
      ],
      "name": "unadopt",
      "outputs": [
        {
          "internalType": "uint256",
          "name": "",
          "type": "uint256"
        }
      ],
      "payable": false,
      "stateMutability": "nonpayable",
      "type": "function"
    },
    {
      "constant": true,
      "inputs": [],
      "name": "getAdopters",
      "outputs": [
        {
          "internalType": "address[16]",
          "name": "",
          "type": "address[16]"
        }
      ],
      "payable": false,
      "stateMutability": "view",
      "type": "function"
    },
    {
      "constant": true,
      "inputs": [
        {
          "internalType": "uint256",
          "name": "petId",
          "type": "uint256"
        }
      ],
      "name": "getPet",
      "outputs": [
        {
          "internalType": "string",
          "name": "",
          "type": "string"
        },
        {
          "internalType": "string",
          "name": "",
          "type": "string"
        },
        {
          "internalType": "uint256",
          "name": "",
          "type": "uint256"
        },
        {
          "internalType": "string",
          "name": "",
          "type": "string"
        },
        {
          "internalType": "string",
          "name": "",
          "type": "string"
        },
        {
          "internalType": "address",
          "name": "",
          "type": "address"
        }
      ],
      "payable": false,
      "stateMutability": "view",
      "type": "function"
    },
    {
      "constant": true,
      "inputs": [],
      "name": "getPetIds",
      "outputs": [
        {
          "internalType": "uint256[]",
          "name": "",
          "type": "uint256[]"
        }
      ],
      "payable": false,
      "stateMutability": "view",
      "type": "function"
    },
    {
      "constant": false,
      "inputs": [
        {
          "internalType": "uint256",
          "name": "petId",
          "type": "uint256"
        },
        {
          "internalType": "string",
          "name": "name",
          "type": "string"
        },
        {
          "internalType": "string",
          "name": "breed",
          "type": "string"
        },
        {
          "internalType": "uint256",
          "name": "age",
          "type": "uint256"
        },
        {
          "internalType": "string",
          "name": "location",
          "type": "string"
        },
        {
          "internalType": "string",
          "name": "photo",
          "type": "string"
        }
      ],
      "name": "registerPet",
      "outputs": [
        {
          "internalType": "uint256",
          "name": "",
          "type": "uint256"
        }
      ],
      "payable": false,
      "stateMutability": "nonpayable",
      "type": "function"
    },
    {
      "constant": true,
      "inputs": [],
      "name": "getMostAdoptedBreed",
      "outputs": [
        {
          "internalType": "string",
          "name": "",
          "type": "string"
        }
      ],
      "payable": false,
      "stateMutability": "view",
      "type": "function"
    },
    {
      "constant": true,
      "inputs": [
        {
          "internalType": "address",
          "name": "user",
          "type": "address"
        }
      ],
      "name": "getAdoptablePets",
      "outputs": [
        {
          "internalType": "uint256[]",
          "name": "",
          "type": "uint256[]"
        },
        {
          "internalType": "uint256[]",
          "name": "",
          "type": "uint256[]"
        }
      ],
      "payable": false,
      "stateMutability": "view",
      "type": "function"
    }
  ],
  "bytecode": "0x608060405234801561001057600080fd5b50611f5b806100206000396000f3fe608060405234801561001057600080fd5b50600436106100a95760003560e01c8063582f670211610071578063582f6702146102e457806359d551941461058c5780637fe536f8146107b15780638a8b67ed1461083457806390b8402914610adc578063cfb869bf14610b1e576100a9565b806313771111146100ae5780633de4eb171461018f57806343ae80d3146101d5578063547d8a95146102435780635820eaac146102a2575b600080fd5b6100f0600480360360208110156100c457600080fd5b81019080803573ffffffffffffffffffffffffffffffffffffffff169060200190929190505050610d43565b604051808060200180602001838103835285818151815260200191508051906020019060200280838360005b8381101561013757808201518184015260208101905061011c565b50505050905001838103825284818151815260200191508051906020019060200280838360005b8381101561017957808201518184015260208101905061015e565b5050505090500194505050505060405180910390f35b610197610f6c565b6040518082601060200280838360005b838110156101c25780820151818401526020810190506101a7565b5050505090500191505060405180910390f35b610201600480360360208110156101eb57600080fd5b8101908080359060200190929190505050610fed565b604051808273ffffffffffffffffffffffffffffffffffffffff1673ffffffffffffffffffffffffffffffffffffffff16815260200191505060405180910390f35b61024b611020565b6040518080602001828103825283818151815260200191508051906020019060200280838360005b8381101561028e578082015181840152602081019050610273565b505050509050019250505060405180910390f35b6102ce600480360360208110156102b857600080fd5b8101908080359060200190929190505050611078565b6040518082815260200191505060405180910390f35b610576600480360360c08110156102fa57600080fd5b81019080803590602001909291908035906020019064010000000081111561032157600080fd5b82018360208201111561033357600080fd5b8035906020019184600183028401116401000000008311171561035557600080fd5b91908080601f016020809104026020016040519081016040528093929190818152602001838380828437600081840152601f19601f820116905080830192505050505050509192919290803590602001906401000000008111156103b857600080fd5b8201836020820111156103ca57600080fd5b803590602001918460018302840111640100000000831117156103ec57600080fd5b91908080601f016020809104026020016040519081016040528093929190818152602001838380828437600081840152601f19601f820116905080830192505050505050509192919290803590602001909291908035906020019064010000000081111561045957600080fd5b82018360208201111561046b57600080fd5b8035906020019184600183028401116401000000008311171561048d57600080fd5b91908080601f016020809104026020016040519081016040528093929190818152602001838380828437600081840152601f19601f820116905080830192505050505050509192919290803590602001906401000000008111156104f057600080fd5b82018360208201111561050257600080fd5b8035906020019184600183028401116401000000008311171561052457600080fd5b91908080601f016020809104026020016040519081016040528093929190818152602001838380828437600081840152601f19601f820116905080830192505050505050509192919290505050611099565b6040518082815260200191505060405180910390f35b6105b8600480360360208110156105a257600080fd5b8101908080359060200190929190505050611248565b60405180806020018060200187815260200180602001806020018673ffffffffffffffffffffffffffffffffffffffff1673ffffffffffffffffffffffffffffffffffffffff16815260200185810385528b818151815260200191508051906020019080838360005b8381101561063c578082015181840152602081019050610621565b50505050905090810190601f1680156106695780820380516001836020036101000a031916815260200191505b5085810384528a818151815260200191508051906020019080838360005b838110156106a2578082015181840152602081019050610687565b50505050905090810190601f1680156106cf5780820380516001836020036101000a031916815260200191505b50858103835288818151815260200191508051906020019080838360005b838110156107085780820151818401526020810190506106ed565b50505050905090810190601f1680156107355780820380516001836020036101000a031916815260200191505b50858103825287818151815260200191508051906020019080838360005b8381101561076e578082015181840152602081019050610753565b50505050905090810190601f16801561079b5780820380516001836020036101000a031916815260200191505b509a505050505050505050505060405180910390f35b6107b961157d565b6040518080602001828103825283818151815260200191508051906020019080838360005b838110156107f95780820151818401526020810190506107de565b50505050905090810190601f1680156108265780820380516001836020036101000a031916815260200191505b509250505060405180910390f35b610ac6600480360360c081101561084a57600080fd5b81019080803590602001909291908035906020019064010000000081111561087157600080fd5b82018360208201111561088357600080fd5b803590602001918460018302840111640100000000831117156108a557600080fd5b91908080601f016020809104026020016040519081016040528093929190818152602001838380828437600081840152601f19601f8201169050808301925050505050505091929192908035906020019064010000000081111561090857600080fd5b82018360208201111561091a57600080fd5b8035906020019184600183028401116401000000008311171561093c57600080fd5b91908080601f016020809104026020016040519081016040528093929190818152602001838380828437600081840152601f19601f82011690508083019250505050505050919291929080359060200190929190803590602001906401000000008111156109a957600080fd5b8201836020820111156109bb57600080fd5b803590602001918460018302840111640100000000831117156109dd57600080fd5b91908080601f016020809104026020016040519081016040528093929190818152602001838380828437600081840152601f19601f82011690508083019250505050505050919291929080359060200190640100000000811115610a4057600080fd5b820183602082011115610a5257600080fd5b80359060200191846001830284011164010000000083111715610a7457600080fd5b91908080601f016020809104026020016040519081016040528093929190818152602001838380828437600081840152601f19601f8201169050808301925050505050505091929192905050506118fa565b6040518082815260200191505060405180910390f35b610b0860048036036020811015610af257600080fd5b8101908080359060200190929190505050611af5565b6040518082815260200191505060405180910390f35b610b4a60048036036020811015610b3457600080fd5b8101908080359060200190929190505050611ba2565b60405180806020018060200187815260200180602001806020018673ffffffffffffffffffffffffffffffffffffffff1673ffffffffffffffffffffffffffffffffffffffff16815260200185810385528b818151815260200191508051906020019080838360005b83811015610bce578082015181840152602081019050610bb3565b50505050905090810190601f168015610bfb5780820380516001836020036101000a031916815260200191505b5085810384528a818151815260200191508051906020019080838360005b83811015610c34578082015181840152602081019050610c19565b50505050905090810190601f168015610c615780820380516001836020036101000a031916815260200191505b50858103835288818151815260200191508051906020019080838360005b83811015610c9a578082015181840152602081019050610c7f565b50505050905090810190601f168015610cc75780820380516001836020036101000a031916815260200191505b50858103825287818151815260200191508051906020019080838360005b83811015610d00578082015181840152602081019050610ce5565b50505050905090810190601f168015610d2d5780820380516001836020036101000a031916815260200191505b509a505050505050505050505060405180910390f35b6060806060601080549050604051908082528060200260200182016040528015610d7c5781602001602082028038833980820191505090505b5090506060601080549050604051908082528060200260200182016040528015610db55781602001602082028038833980820191505090505b5090506000809050600080905060008090505b601080549050811015610f5c57600073ffffffffffffffffffffffffffffffffffffffff166011600060108481548110610dfe57fe5b9060005260206000200154815260200190815260200160002060050160009054906101000a900473ffffffffffffffffffffffffffffffffffffffff1673ffffffffffffffffffffffffffffffffffffffff161415610e945760108181548110610e6457fe5b9060005260206000200154858481518110610e7b57fe5b6020026020010181815250508280600101935050610f4f565b8773ffffffffffffffffffffffffffffffffffffffff166011600060108481548110610ebc57fe5b9060005260206000200154815260200190815260200160002060050160009054906101000a900473ffffffffffffffffffffffffffffffffffffffff1673ffffffffffffffffffffffffffffffffffffffff161415610f4e5760108181548110610f2257fe5b9060005260206000200154848381518110610f3957fe5b60200260200101818152505081806001019250505b5b8080600101915050610dc8565b5083839550955050505050915091565b610f74611e5e565b6000601080602002604051908101604052809291908260108015610fe3576020028201915b8160009054906101000a900473ffffffffffffffffffffffffffffffffffffffff1673ffffffffffffffffffffffffffffffffffffffff1681526020019060010190808311610f99575b5050505050905090565b60008160108110610ffa57fe5b016000915054906101000a900473ffffffffffffffffffffffffffffffffffffffff1681565b6060601080548060200260200160405190810160405280929190818152602001828054801561106e57602002820191906000526020600020905b81548152602001906001019080831161105a575b5050505050905090565b6010818154811061108557fe5b906000526020600020016000915090505481565b60006040518060c00160405280878152602001868152602001858152602001848152602001838152602001600073ffffffffffffffffffffffffffffffffffffffff1681525060116000898152602001908152602001600020600082015181600001908051906020019061110e929190611e81565b50602082015181600101908051906020019061112b929190611e81565b50604082015181600201556060820151816003019080519060200190611152929190611e81565b50608082015181600401908051906020019061116f929190611e81565b5060a08201518160050160006101000a81548173ffffffffffffffffffffffffffffffffffffffff021916908373ffffffffffffffffffffffffffffffffffffffff160217905550905050600080905060008090505b6010805490508110156112075788601082815481106111e057fe5b906000526020600020015414156111fa5760019150611207565b80806001019150506111c5565b508061123a5760108890806001815401808255809150509060018203906000526020600020016000909192909190915055505b879150509695505050505050565b606080600060608060006011600088815260200190815260200160002060000160116000898152602001908152602001600020600101601160008a815260200190815260200160002060020154601160008b8152602001908152602001600020600301601160008c8152602001908152602001600020600401601160008d815260200190815260200160002060050160009054906101000a900473ffffffffffffffffffffffffffffffffffffffff16858054600181600116156101000203166002900480601f01602080910402602001604051908101604052809291908181526020018280546001816001161561010002031660029004801561138d5780601f106113625761010080835404028352916020019161138d565b820191906000526020600020905b81548152906001019060200180831161137057829003601f168201915b50505050509550848054600181600116156101000203166002900480601f0160208091040260200160405190810160405280929190818152602001828054600181600116156101000203166002900480156114295780601f106113fe57610100808354040283529160200191611429565b820191906000526020600020905b81548152906001019060200180831161140c57829003601f168201915b50505050509450828054600181600116156101000203166002900480601f0160208091040260200160405190810160405280929190818152602001828054600181600116156101000203166002900480156114c55780601f1061149a576101008083540402835291602001916114c5565b820191906000526020600020905b8154815290600101906020018083116114a857829003601f168201915b50505050509250818054600181600116156101000203166002900480601f0160208091040260200160405190810160405280929190818152602001828054600181600116156101000203166002900480156115615780601f1061153657610100808354040283529160200191611561565b820191906000526020600020905b81548152906001019060200180831161154457829003601f168201915b5050505050915095509550955095509550955091939550919395565b6060806010805490506040519080825280602002602001820160405280156115b45781602001602082028038833980820191505090505b5090506000809050600080905060008090505b60108054905081101561182b57600073ffffffffffffffffffffffffffffffffffffffff1660116000601084815481106115fd57fe5b9060005260206000200154815260200190815260200160002060050160009054906101000a900473ffffffffffffffffffffffffffffffffffffffff1673ffffffffffffffffffffffffffffffffffffffff161461181e5760008090505b6010805490508110156117e757601160006010838154811061167957fe5b9060005260206000200154815260200190815260200160002060010160405160200180828054600181600116156101000203166002900480156116f35780601f106116d15761010080835404028352918201916116f3565b820191906000526020600020905b8154815290600101906020018083116116df575b505091505060405160208183030381529060405280519060200120601160006010858154811061171f57fe5b9060005260206000200154815260200190815260200160002060010160405160200180828054600181600116156101000203166002900480156117995780601f10611777576101008083540402835291820191611799565b820191906000526020600020905b815481529060010190602001808311611785575b50509150506040516020818303038152906040528051906020012014156117da578482815181106117c657fe5b602002602001018051809190600101815250505b808060010191505061165b565b50828482815181106117f557fe5b6020026020010151111561181d5783818151811061180f57fe5b602002602001015192508091505b5b80806001019150506115c7565b50601160006010838154811061183d57fe5b906000526020600020015481526020019081526020016000206001018054600181600116156101000203166002900480601f0160208091040260200160405190810160405280929190818152602001828054600181600116156101000203166002900480156118ed5780601f106118c2576101008083540402835291602001916118ed565b820191906000526020600020905b8154815290600101906020018083116118d057829003601f168201915b5050505050935050505090565b6000336000886010811061190a57fe5b0160006101000a81548173ffffffffffffffffffffffffffffffffffffffff021916908373ffffffffffffffffffffffffffffffffffffffff1602179055506040518060c001604052808781526020018681526020018581526020018481526020018381526020013373ffffffffffffffffffffffffffffffffffffffff168152506011600089815260200190815260200160002060008201518160000190805190602001906119bb929190611e81565b5060208201518160010190805190602001906119d8929190611e81565b506040820151816002015560608201518160030190805190602001906119ff929190611e81565b506080820151816004019080519060200190611a1c929190611e81565b5060a08201518160050160006101000a81548173ffffffffffffffffffffffffffffffffffffffff021916908373ffffffffffffffffffffffffffffffffffffffff160217905550905050600080905060008090505b601080549050811015611ab4578860108281548110611a8d57fe5b90600052602060002001541415611aa75760019150611ab4565b8080600101915050611a72565b5080611ae75760108890806001815401808255809150509060018203906000526020600020016000909192909190915055505b879150509695505050505050565b60008060008360108110611b0557fe5b0160006101000a81548173ffffffffffffffffffffffffffffffffffffffff021916908373ffffffffffffffffffffffffffffffffffffffff16021790555060006011600084815260200190815260200160002060050160006101000a81548173ffffffffffffffffffffffffffffffffffffffff021916908373ffffffffffffffffffffffffffffffffffffffff160217905550819050919050565b6011602052806000526040600020600091509050806000018054600181600116156101000203166002900480601f016020809104026020016040519081016040528092919081815260200182805460018160011615610100020316600290048015611c4e5780601f10611c2357610100808354040283529160200191611c4e565b820191906000526020600020905b815481529060010190602001808311611c3157829003601f168201915b505050505090806001018054600181600116156101000203166002900480601f016020809104026020016040519081016040528092919081815260200182805460018160011615610100020316600290048015611cec5780601f10611cc157610100808354040283529160200191611cec565b820191906000526020600020905b815481529060010190602001808311611ccf57829003601f168201915b505050505090806002015490806003018054600181600116156101000203166002900480601f016020809104026020016040519081016040528092919081815260200182805460018160011615610100020316600290048015611d905780601f10611d6557610100808354040283529160200191611d90565b820191906000526020600020905b815481529060010190602001808311611d7357829003601f168201915b505050505090806004018054600181600116156101000203166002900480601f016020809104026020016040519081016040528092919081815260200182805460018160011615610100020316600290048015611e2e5780601f10611e0357610100808354040283529160200191611e2e565b820191906000526020600020905b815481529060010190602001808311611e1157829003601f168201915b5050505050908060050160009054906101000a900473ffffffffffffffffffffffffffffffffffffffff16905086565b604051806102000160405280601090602082028038833980820191505090505090565b828054600181600116156101000203166002900490600052602060002090601f016020900481019282601f10611ec257805160ff1916838001178555611ef0565b82800160010185558215611ef0579182015b82811115611eef578251825591602001919060010190611ed4565b5b509050611efd9190611f01565b5090565b611f2391905b80821115611f1f576000816000905550600101611f07565b5090565b9056fea265627a7a7231582067c71eed4ba7de49f809ab3a720f55e692aa26e3c6590ea182f7a9abcbd94e5264736f6c63430005110032",
  "source": "pragma solidity ^0.5.0;\n\ncontract Adoption {\n    // Define an array of 16 addresses to store adopters\n    address[16] public adopters;\n\n    // Define a struct to hold pet information\n    struct Pet {\n        string name;\n        string breed;\n        uint age;\n        string location;\n        string photo;\n        address owner;\n    }\n\n    // Define a dictionary (mapping) where the key is a petId and the value is a Pet struct\n    uint[] public petIds;\n    mapping(uint => Pet) public pets;\n\n    // Adopting a pet\n    function adopt(\n        uint petId,\n        string memory name,\n        string memory breed,\n        uint age,\n        string memory location,\n        string memory photo\n    ) public returns (uint) {\n        // require(petId >= 0 && petId <= 15, \"Pet ID must be within range 0 to 15.\");\n\n        adopters[petId] = msg.sender;\n\n        pets[petId] = Pet(name, breed, age, location, photo, msg.sender);\n\n        // Check if petId exists in petIds, if not then add it\n        bool exists = false;\n        for (uint i = 0; i < petIds.length; i++) {\n            if (petIds[i] == petId) {\n                exists = true;\n                break;\n            }\n        }\n        if (!exists) {\n            petIds.push(petId);\n        }\n\n        return petId;\n    }\n\n    // Unadopting a pet\n    function unadopt(uint petId) public returns (uint) {\n        // require(petId >= 0 && petId <= 15, \"Pet ID must be within range 0 to 15.\");\n\n        adopters[petId] = address(0);\n\n        // update pets's corresponding owner to 0x0\n        pets[petId].owner = address(0);\n\n        // Emitting event after successful adoption\n        return petId;\n    }\n    // Retrieving the adopters\n    function getAdopters() public view returns (address[16] memory) {\n        return adopters;\n    }\n\n    //  Get the pet information\n    function getPet(\n        uint petId\n    )\n        public\n        view\n        returns (\n            string memory,\n            string memory,\n            uint,\n            string memory,\n            string memory,\n            address\n        )\n    {\n        return (\n            pets[petId].name,\n            pets[petId].breed,\n            pets[petId].age,\n            pets[petId].location,\n            pets[petId].photo,\n            pets[petId].owner\n        );\n    }\n\n    // Get all pets Ids\n    function getPetIds() public view returns (uint[] memory) {\n        return petIds;\n    }\n\n    // Add a new pet\n    function registerPet(\n        uint petId,\n        string memory name,\n        string memory breed,\n        uint age,\n        string memory location,\n        string memory photo\n    ) public returns (uint) {\n        pets[petId] = Pet(name, breed, age, location, photo, address(0));\n\n        // Check if petId exists in petIds, if not then add it\n        bool exists = false;\n        for (uint i = 0; i < petIds.length; i++) {\n            if (petIds[i] == petId) {\n                exists = true;\n                break;\n            }\n        }\n        if (!exists) {\n            petIds.push(petId);\n        }\n\n        return petId;\n    }\n    // Get the most adopted breed\n    function getMostAdoptedBreed() public view returns (string memory) {\n        uint[] memory breedCount = new uint[](petIds.length);\n        uint maxCount = 0;\n        uint maxIndex = 0;\n        for (uint i = 0; i < petIds.length; i++) {\n            if (pets[petIds[i]].owner != address(0)) { // Check if the pet is owned by someone\n                for (uint j = 0; j < petIds.length; j++) {\n                    if (keccak256(abi.encodePacked(pets[petIds[i]].breed)) == keccak256(abi.encodePacked(pets[petIds[j]].breed))) {\n                        breedCount[i]++;\n                    }\n                }\n                if (breedCount[i] > maxCount) {\n                    maxCount = breedCount[i];\n                    maxIndex = i;\n                }\n            }\n        }\n        return pets[petIds[maxIndex]].breed;\n    }\n\n    // function to return all pets's id that the user can adopt and the pets they arleady adopted in a dictionary format   \n    function getAdoptablePets(address user) public view returns (uint[] memory, uint[] memory) {\n        uint[] memory adoptablePets = new uint[](petIds.length);\n        uint[] memory adoptedPets = new uint[](petIds.length);\n        uint adoptableIndex = 0;\n        uint adoptedIndex = 0;\n        for (uint i = 0; i < petIds.length; i++) {\n            if (pets[petIds[i]].owner == address(0)) {\n                adoptablePets[adoptableIndex] = petIds[i];\n                adoptableIndex++;\n            } else if (pets[petIds[i]].owner == user) {\n                adoptedPets[adoptedIndex] = petIds[i];\n                adoptedIndex++;\n            }\n        }\n        return (adoptablePets, adoptedPets);\n    }\n}\n",
  "sourcePath": "/Users/qianqian/Desktop/APS1050_Blockchain_PetShop_Project/contracts/Adoption.sol",
  "compiler": {
    "name": "solc",
    "version": "0.5.17+commit.d19bba13.Emscripten.clang"
  },
  "schemaVersion": "3.4.16",
  "updatedAt": "2024-04-03T18:03:08.872Z",
  "networkType": "ethereum",
  "devdoc": {
    "methods": {}
  },
  "userdoc": {
    "methods": {}
  }
}