{
  "contractName": "Donation",
  "abi": [
    {
      "anonymous": false,
      "inputs": [
        {
          "indexed": true,
          "internalType": "address",
          "name": "donor",
          "type": "address"
        },
        {
          "indexed": false,
          "internalType": "uint256",
          "name": "amount",
          "type": "uint256"
        },
        {
          "indexed": false,
          "internalType": "string",
          "name": "message",
          "type": "string"
        }
      ],
      "name": "DonationReceived",
      "type": "event"
    },
    {
      "constant": true,
      "inputs": [
        {
          "internalType": "uint256",
          "name": "",
          "type": "uint256"
        }
      ],
      "name": "donations",
      "outputs": [
        {
          "internalType": "address",
          "name": "donor",
          "type": "address"
        },
        {
          "internalType": "uint256",
          "name": "amount",
          "type": "uint256"
        },
        {
          "internalType": "string",
          "name": "message",
          "type": "string"
        }
      ],
      "payable": false,
      "stateMutability": "view",
      "type": "function"
    },
    {
      "constant": true,
      "inputs": [
        {
          "internalType": "address",
          "name": "",
          "type": "address"
        }
      ],
      "name": "donors",
      "outputs": [
        {
          "internalType": "uint256",
          "name": "",
          "type": "uint256"
        }
      ],
      "payable": false,
      "stateMutability": "view",
      "type": "function"
    },
    {
      "constant": true,
      "inputs": [],
      "name": "owner",
      "outputs": [
        {
          "internalType": "address payable",
          "name": "",
          "type": "address"
        }
      ],
      "payable": false,
      "stateMutability": "view",
      "type": "function"
    },
    {
      "constant": false,
      "inputs": [
        {
          "internalType": "string",
          "name": "_message",
          "type": "string"
        }
      ],
      "name": "donate",
      "outputs": [],
      "payable": true,
      "stateMutability": "payable",
      "type": "function"
    },
    {
      "constant": false,
      "inputs": [],
      "name": "withdraw",
      "outputs": [],
      "payable": false,
      "stateMutability": "nonpayable",
      "type": "function"
    },
    {
      "constant": true,
      "inputs": [],
      "name": "getBalance",
      "outputs": [
        {
          "internalType": "uint256",
          "name": "",
          "type": "uint256"
        }
      ],
      "payable": false,
      "stateMutability": "view",
      "type": "function"
    },
    {
      "constant": true,
      "inputs": [],
      "name": "getDonationsHistory",
      "outputs": [
        {
          "internalType": "address[]",
          "name": "",
          "type": "address[]"
        },
        {
          "internalType": "uint256[]",
          "name": "",
          "type": "uint256[]"
        },
        {
          "internalType": "string[]",
          "name": "",
          "type": "string[]"
        }
      ],
      "payable": false,
      "stateMutability": "view",
      "type": "function"
    }
  ],
  "bytecode": "0x608060405273293c16a242b6f8e5d7a059b25f0f803ae37dd35c6000806101000a81548173ffffffffffffffffffffffffffffffffffffffff021916908373ffffffffffffffffffffffffffffffffffffffff16021790555034801561006457600080fd5b506110e6806100746000396000f3fe6080604052600436106100705760003560e01c80638da5cb5b1161004e5780638da5cb5b146100e4578063b5aebc801461010f578063ca0cdea81461012b578063f8626af81461016857610070565b806312065fe0146100755780631397cf25146100a05780633ccfd60b146100cd575b600080fd5b34801561008157600080fd5b5061008a6101a7565b6040516100979190610e4d565b60405180910390f35b3480156100ac57600080fd5b506100b56101af565b6040516100c493929190610dc1565b60405180910390f35b3480156100d957600080fd5b506100e261041f565b005b3480156100f057600080fd5b506100f9610518565b6040516101069190610d68565b60405180910390f35b610129600480360361012491908101906109ed565b61053d565b005b34801561013757600080fd5b50610152600480360361014d91908101906109c4565b610763565b60405161015f9190610e4d565b60405180910390f35b34801561017457600080fd5b5061018f600480360361018a9190810190610a2e565b61077b565b60405161019e93929190610d83565b60405180910390f35b600047905090565b6060806060806002805490506040519080825280602002602001820160405280156101e95781602001602082028038833980820191505090505b50905060606002805490506040519080825280602002602001820160405280156102225781602001602082028038833980820191505090505b509050606060028054905060405190808252806020026020018201604052801561026057816020015b606081526020019060019003908161024b5790505b50905060008090505b60028054905081101561040d576002818154811061028357fe5b906000526020600020906003020160000160009054906101000a900473ffffffffffffffffffffffffffffffffffffffff168482815181106102c157fe5b602002602001019073ffffffffffffffffffffffffffffffffffffffff16908173ffffffffffffffffffffffffffffffffffffffff16815250506002818154811061030857fe5b90600052602060002090600302016001015483828151811061032657fe5b6020026020010181815250506002818154811061033f57fe5b90600052602060002090600302016002018054600181600116156101000203166002900480601f0160208091040260200160405190810160405280929190818152602001828054600181600116156101000203166002900480156103e45780601f106103b9576101008083540402835291602001916103e4565b820191906000526020600020905b8154815290600101906020018083116103c757829003601f168201915b50505050508282815181106103f557fe5b60200260200101819052508080600101915050610269565b50828282955095509550505050909192565b6000809054906101000a900473ffffffffffffffffffffffffffffffffffffffff1673ffffffffffffffffffffffffffffffffffffffff163373ffffffffffffffffffffffffffffffffffffffff16146104ae576040517f08c379a00000000000000000000000000000000000000000000000000000000081526004016104a590610e0d565b60405180910390fd5b6000809054906101000a900473ffffffffffffffffffffffffffffffffffffffff1673ffffffffffffffffffffffffffffffffffffffff166108fc479081150290604051600060405180830381858888f19350505050158015610515573d6000803e3d6000fd5b50565b6000809054906101000a900473ffffffffffffffffffffffffffffffffffffffff1681565b60003411610580576040517f08c379a000000000000000000000000000000000000000000000000000000000815260040161057790610e2d565b60405180910390fd5b34600160003373ffffffffffffffffffffffffffffffffffffffff1673ffffffffffffffffffffffffffffffffffffffff168152602001908152602001600020600082825401925050819055506105d561086a565b60405180606001604052803373ffffffffffffffffffffffffffffffffffffffff1681526020013481526020018381525090506002819080600181540180825580915050906001820390600052602060002090600302016000909192909190915060008201518160000160006101000a81548173ffffffffffffffffffffffffffffffffffffffff021916908373ffffffffffffffffffffffffffffffffffffffff1602179055506020820151816001015560408201518160020190805190602001906106a39291906108a1565b505050503373ffffffffffffffffffffffffffffffffffffffff167ffa5658cbb5d60363acba0d281bddcf21cc9e7ea6053267531b4cdc36d5df7a8a34846040516106ef929190610e68565b60405180910390a26000809054906101000a900473ffffffffffffffffffffffffffffffffffffffff1673ffffffffffffffffffffffffffffffffffffffff166108fc349081150290604051600060405180830381858888f1935050505015801561075e573d6000803e3d6000fd5b505050565b60016020528060005260406000206000915090505481565b6002818154811061078857fe5b90600052602060002090600302016000915090508060000160009054906101000a900473ffffffffffffffffffffffffffffffffffffffff1690806001015490806002018054600181600116156101000203166002900480601f0160208091040260200160405190810160405280929190818152602001828054600181600116156101000203166002900480156108605780601f1061083557610100808354040283529160200191610860565b820191906000526020600020905b81548152906001019060200180831161084357829003601f168201915b5050505050905083565b6040518060600160405280600073ffffffffffffffffffffffffffffffffffffffff16815260200160008152602001606081525090565b828054600181600116156101000203166002900490600052602060002090601f016020900481019282601f106108e257805160ff1916838001178555610910565b82800160010185558215610910579182015b8281111561090f5782518255916020019190600101906108f4565b5b50905061091d9190610921565b5090565b61094391905b8082111561093f576000816000905550600101610927565b5090565b90565b60008135905061095581611075565b92915050565b600082601f83011261096c57600080fd5b813561097f61097a82610ec5565b610e98565b9150808252602083016020830185838301111561099b57600080fd5b6109a6838284611022565b50505092915050565b6000813590506109be8161108c565b92915050565b6000602082840312156109d657600080fd5b60006109e484828501610946565b91505092915050565b6000602082840312156109ff57600080fd5b600082013567ffffffffffffffff811115610a1957600080fd5b610a258482850161095b565b91505092915050565b600060208284031215610a4057600080fd5b6000610a4e848285016109af565b91505092915050565b6000610a638383610aaa565b60208301905092915050565b6000610a7b8383610c32565b905092915050565b6000610a8f8383610d4a565b60208301905092915050565b610aa481610fe6565b82525050565b610ab381610fd4565b82525050565b610ac281610fd4565b82525050565b6000610ad382610f21565b610add8185610f7f565b9350610ae883610ef1565b8060005b83811015610b19578151610b008882610a57565b9750610b0b83610f58565b925050600181019050610aec565b5085935050505092915050565b6000610b3182610f2c565b610b3b8185610f90565b935083602082028501610b4d85610f01565b8060005b85811015610b895784840389528151610b6a8582610a6f565b9450610b7583610f65565b925060208a01995050600181019050610b51565b50829750879550505050505092915050565b6000610ba682610f37565b610bb08185610fa1565b9350610bbb83610f11565b8060005b83811015610bec578151610bd38882610a83565b9750610bde83610f72565b925050600181019050610bbf565b5085935050505092915050565b6000610c0482610f4d565b610c0e8185610fc3565b9350610c1e818560208601611031565b610c2781611064565b840191505092915050565b6000610c3d82610f42565b610c478185610fb2565b9350610c57818560208601611031565b610c6081611064565b840191505092915050565b6000610c7682610f42565b610c808185610fc3565b9350610c90818560208601611031565b610c9981611064565b840191505092915050565b6000610cb1602183610fc3565b91507f4f6e6c7920746865206f776e65722063616e2077697468647261772066756e6460008301527f73000000000000000000000000000000000000000000000000000000000000006020830152604082019050919050565b6000610d17601e83610fc3565b91507f446f6e6174696f6e2073686f756c64206265206d6f7265207468616e203000006000830152602082019050919050565b610d5381611018565b82525050565b610d6281611018565b82525050565b6000602082019050610d7d6000830184610a9b565b92915050565b6000606082019050610d986000830186610ab9565b610da56020830185610d59565b8181036040830152610db78184610c6b565b9050949350505050565b60006060820190508181036000830152610ddb8186610ac8565b90508181036020830152610def8185610b9b565b90508181036040830152610e038184610b26565b9050949350505050565b60006020820190508181036000830152610e2681610ca4565b9050919050565b60006020820190508181036000830152610e4681610d0a565b9050919050565b6000602082019050610e626000830184610d59565b92915050565b6000604082019050610e7d6000830185610d59565b8181036020830152610e8f8184610bf9565b90509392505050565b6000604051905081810181811067ffffffffffffffff82111715610ebb57600080fd5b8060405250919050565b600067ffffffffffffffff821115610edc57600080fd5b601f19601f8301169050602081019050919050565b6000819050602082019050919050565b6000819050602082019050919050565b6000819050602082019050919050565b600081519050919050565b600081519050919050565b600081519050919050565b600081519050919050565b600081519050919050565b6000602082019050919050565b6000602082019050919050565b6000602082019050919050565b600082825260208201905092915050565b600082825260208201905092915050565b600082825260208201905092915050565b600082825260208201905092915050565b600082825260208201905092915050565b6000610fdf82610ff8565b9050919050565b6000610ff182610ff8565b9050919050565b600073ffffffffffffffffffffffffffffffffffffffff82169050919050565b6000819050919050565b82818337600083830152505050565b60005b8381101561104f578082015181840152602081019050611034565b8381111561105e576000848401525b50505050565b6000601f19601f8301169050919050565b61107e81610fd4565b811461108957600080fd5b50565b61109581611018565b81146110a057600080fd5b5056fea365627a7a72315820d13b0182c1444b4b5f5c86ad93d01c5bec7e19057729652df4a0fee200d841506c6578706572696d656e74616cf564736f6c63430005110040",
  "source": "// SPDX-License-Identifier: MIT\npragma solidity ^0.5.0;\npragma experimental ABIEncoderV2; \n\ncontract Donation {\n    // set the owner of the petshop to be the second account in Ganache\n    address payable public owner = address(0x293c16A242b6F8e5D7A059B25F0F803aE37DD35c);\n    \n    // Define a dictionary to store the donation amount of each donor\n    mapping(address => uint) public donors;\n\n    // Define a array to store the donation history\n    struct Donation {\n        address donor;\n        uint amount;\n        string message;\n    }    \n    // array of Donation structs\n    Donation[] public donations;\n\n\n    // constructor() {\n    //     owner = payable(msg.sender);\n    // }\n\n    event DonationReceived(address indexed donor, uint amount, string message);\n\n    function donate(string memory _message) public payable {\n        require(msg.value > 0, \"Donation should be more than 0\");\n\n        donors[msg.sender] += msg.value;\n        Donation memory donation = Donation(msg.sender, msg.value, _message);\n        donations.push(donation);\n\n        emit DonationReceived(msg.sender, msg.value, _message);\n\n        owner.transfer(msg.value);\n    }\n\n\n    function withdraw() public {\n        require(msg.sender == owner, \"Only the owner can withdraw funds\");\n        owner.transfer(address(this).balance);\n    }\n\n    function getBalance() public view returns (uint) {\n        return address(this).balance;\n    }\n\n\n    function getDonationsHistory() public view returns (address[] memory, uint[] memory, string[] memory) {\n        address[] memory donorAddresses = new address[](donations.length);\n        uint[] memory amounts = new uint[](donations.length);\n        string[] memory messages = new string[](donations.length);\n\n        for (uint i = 0; i < donations.length; i++) {\n            donorAddresses[i] = donations[i].donor;\n            amounts[i] = donations[i].amount;\n            messages[i] = donations[i].message;\n        }\n\n        return (donorAddresses, amounts, messages);\n    }\n\n    }\n",
  "sourcePath": "/Users/qianqian/Desktop/APS1050_Blockchain_PetShop_Project/contracts/Donation.sol",
  "compiler": {
    "name": "solc",
    "version": "0.5.17+commit.d19bba13.Emscripten.clang"
  },
  "schemaVersion": "3.4.16",
  "updatedAt": "2024-04-13T20:04:26.216Z",
  "networkType": "ethereum",
  "devdoc": {
    "methods": {}
  },
  "userdoc": {
    "methods": {}
  }
}